{
  "address": "0xF5Ce5ABf0D87bfA02EbEE2727978bF693781500D",
  "abi": [
    {
      "inputs": [
        {
          "internalType": "uint256",
          "name": "entranceFee",
          "type": "uint256"
        },
        {
          "internalType": "uint256",
          "name": "interval",
          "type": "uint256"
        },
        {
          "internalType": "address",
          "name": "vrfCoordinator",
          "type": "address"
        },
        {
          "internalType": "bytes32",
          "name": "gasLane",
          "type": "bytes32"
        },
        {
          "internalType": "uint256",
          "name": "subscriptionId",
          "type": "uint256"
        },
        {
          "internalType": "uint32",
          "name": "callbackGasLimit",
          "type": "uint32"
        }
      ],
      "stateMutability": "nonpayable",
      "type": "constructor"
    },
    {
      "inputs": [
        {
          "internalType": "address",
          "name": "have",
          "type": "address"
        },
        {
          "internalType": "address",
          "name": "want",
          "type": "address"
        }
      ],
      "name": "OnlyCoordinatorCanFulfill",
      "type": "error"
    },
    {
      "inputs": [
        {
          "internalType": "address",
          "name": "have",
          "type": "address"
        },
        {
          "internalType": "address",
          "name": "owner",
          "type": "address"
        },
        {
          "internalType": "address",
          "name": "coordinator",
          "type": "address"
        }
      ],
      "name": "OnlyOwnerOrCoordinator",
      "type": "error"
    },
    {
      "inputs": [],
      "name": "Raffle__RaffleNotOpen",
      "type": "error"
    },
    {
      "inputs": [],
      "name": "Raffle__SendMoreToEnterRaffle",
      "type": "error"
    },
    {
      "inputs": [],
      "name": "Raffle__TransferFailed",
      "type": "error"
    },
    {
      "inputs": [
        {
          "internalType": "uint256",
          "name": "balance",
          "type": "uint256"
        },
        {
          "internalType": "uint256",
          "name": "playersLength",
          "type": "uint256"
        },
        {
          "internalType": "uint256",
          "name": "raffleState",
          "type": "uint256"
        }
      ],
      "name": "Raffle__UpkeepNotNeeded",
      "type": "error"
    },
    {
      "inputs": [],
      "name": "ZeroAddress",
      "type": "error"
    },
    {
      "anonymous": false,
      "inputs": [
        {
          "indexed": false,
          "internalType": "address",
          "name": "vrfCoordinator",
          "type": "address"
        }
      ],
      "name": "CoordinatorSet",
      "type": "event"
    },
    {
      "anonymous": false,
      "inputs": [
        {
          "indexed": true,
          "internalType": "address",
          "name": "from",
          "type": "address"
        },
        {
          "indexed": true,
          "internalType": "address",
          "name": "to",
          "type": "address"
        }
      ],
      "name": "OwnershipTransferRequested",
      "type": "event"
    },
    {
      "anonymous": false,
      "inputs": [
        {
          "indexed": true,
          "internalType": "address",
          "name": "from",
          "type": "address"
        },
        {
          "indexed": true,
          "internalType": "address",
          "name": "to",
          "type": "address"
        }
      ],
      "name": "OwnershipTransferred",
      "type": "event"
    },
    {
      "anonymous": false,
      "inputs": [
        {
          "indexed": true,
          "internalType": "address",
          "name": "player",
          "type": "address"
        }
      ],
      "name": "RaffleEntered",
      "type": "event"
    },
    {
      "anonymous": false,
      "inputs": [
        {
          "indexed": true,
          "internalType": "uint256",
          "name": "requestId",
          "type": "uint256"
        }
      ],
      "name": "RequestedRaffleWinner",
      "type": "event"
    },
    {
      "anonymous": false,
      "inputs": [
        {
          "indexed": true,
          "internalType": "address",
          "name": "winner",
          "type": "address"
        }
      ],
      "name": "WinnerPicked",
      "type": "event"
    },
    {
      "inputs": [],
      "name": "acceptOwnership",
      "outputs": [],
      "stateMutability": "nonpayable",
      "type": "function"
    },
    {
      "inputs": [
        {
          "internalType": "bytes",
          "name": "",
          "type": "bytes"
        }
      ],
      "name": "checkUpkeep",
      "outputs": [
        {
          "internalType": "bool",
          "name": "upkeepNeeded",
          "type": "bool"
        },
        {
          "internalType": "bytes",
          "name": "",
          "type": "bytes"
        }
      ],
      "stateMutability": "view",
      "type": "function"
    },
    {
      "inputs": [],
      "name": "enterRaffle",
      "outputs": [],
      "stateMutability": "payable",
      "type": "function"
    },
    {
      "inputs": [],
      "name": "getEntranceFee",
      "outputs": [
        {
          "internalType": "uint256",
          "name": "",
          "type": "uint256"
        }
      ],
      "stateMutability": "view",
      "type": "function"
    },
    {
      "inputs": [],
      "name": "getInterval",
      "outputs": [
        {
          "internalType": "uint256",
          "name": "",
          "type": "uint256"
        }
      ],
      "stateMutability": "view",
      "type": "function"
    },
    {
      "inputs": [
        {
          "internalType": "uint256",
          "name": "indexOfPlayer",
          "type": "uint256"
        }
      ],
      "name": "getPlayer",
      "outputs": [
        {
          "internalType": "address",
          "name": "",
          "type": "address"
        }
      ],
      "stateMutability": "view",
      "type": "function"
    },
    {
      "inputs": [],
      "name": "getRaffleState",
      "outputs": [
        {
          "internalType": "enum Raffle.RaffleState",
          "name": "",
          "type": "uint8"
        }
      ],
      "stateMutability": "view",
      "type": "function"
    },
    {
      "inputs": [],
      "name": "getSubscriptionId",
      "outputs": [
        {
          "internalType": "uint256",
          "name": "",
          "type": "uint256"
        }
      ],
      "stateMutability": "view",
      "type": "function"
    },
    {
      "inputs": [],
      "name": "owner",
      "outputs": [
        {
          "internalType": "address",
          "name": "",
          "type": "address"
        }
      ],
      "stateMutability": "view",
      "type": "function"
    },
    {
      "inputs": [
        {
          "internalType": "bytes",
          "name": "",
          "type": "bytes"
        }
      ],
      "name": "performUpkeep",
      "outputs": [],
      "stateMutability": "nonpayable",
      "type": "function"
    },
    {
      "inputs": [
        {
          "internalType": "uint256",
          "name": "requestId",
          "type": "uint256"
        },
        {
          "internalType": "uint256[]",
          "name": "randomWords",
          "type": "uint256[]"
        }
      ],
      "name": "rawFulfillRandomWords",
      "outputs": [],
      "stateMutability": "nonpayable",
      "type": "function"
    },
    {
      "inputs": [],
      "name": "s_vrfCoordinator",
      "outputs": [
        {
          "internalType": "contract IVRFCoordinatorV2Plus",
          "name": "",
          "type": "address"
        }
      ],
      "stateMutability": "view",
      "type": "function"
    },
    {
      "inputs": [
        {
          "internalType": "address",
          "name": "_vrfCoordinator",
          "type": "address"
        }
      ],
      "name": "setCoordinator",
      "outputs": [],
      "stateMutability": "nonpayable",
      "type": "function"
    },
    {
      "inputs": [
        {
          "internalType": "address",
          "name": "to",
          "type": "address"
        }
      ],
      "name": "transferOwnership",
      "outputs": [],
      "stateMutability": "nonpayable",
      "type": "function"
    }
  ],
  "transactionHash": "0x146b514f7093cbfc4db5318fb329c2d418295a5d130f0bdd0cf4ebf9b8c1f659",
  "args": [
    "10000000000000000",
    "30",
    "0x9DdfaCa8183c41ad55329BdeeD9F6A8d53168B1B",
    "0x787d74caea10b2b357790d5b5247c2f63d1d91572a9846f780606e4d953677ae",
    "7399647949254324747313642538347699474131487154543094178533628410601050572543",
    "500000"
  ],
  "numDeployments": 1,
  "solcInputHash": "1b7d4e250cd23472809d1458bef7da05",
  "bytecode": "0x61012060405234801561001157600080fd5b506040516124363803806124368339818101604052810190610033919061047e565b83338060008073ffffffffffffffffffffffffffffffffffffffff168273ffffffffffffffffffffffffffffffffffffffff16036100a6576040517f08c379a000000000000000000000000000000000000000000000000000000000815260040161009d90610568565b60405180910390fd5b816000806101000a81548173ffffffffffffffffffffffffffffffffffffffff021916908373ffffffffffffffffffffffffffffffffffffffff160217905550600073ffffffffffffffffffffffffffffffffffffffff168173ffffffffffffffffffffffffffffffffffffffff161461012a576101298161024760201b60201c565b5b505050600073ffffffffffffffffffffffffffffffffffffffff168173ffffffffffffffffffffffffffffffffffffffff1603610193576040517fd92e233d00000000000000000000000000000000000000000000000000000000815260040160405180910390fd5b80600260006101000a81548173ffffffffffffffffffffffffffffffffffffffff021916908373ffffffffffffffffffffffffffffffffffffffff1602179055505085608081815250508460a081815250508260c081815250508160e081815250508063ffffffff166101008163ffffffff1681525050426004819055506000600560146101000a81548160ff0219169083600181111561023757610236610588565b5b0217905550505050505050610623565b3373ffffffffffffffffffffffffffffffffffffffff168173ffffffffffffffffffffffffffffffffffffffff16036102b5576040517f08c379a00000000000000000000000000000000000000000000000000000000081526004016102ac90610603565b60405180910390fd5b80600160006101000a81548173ffffffffffffffffffffffffffffffffffffffff021916908373ffffffffffffffffffffffffffffffffffffffff1602179055508073ffffffffffffffffffffffffffffffffffffffff1660008054906101000a900473ffffffffffffffffffffffffffffffffffffffff1673ffffffffffffffffffffffffffffffffffffffff167fed8889f560326eb138920d842192f0eb3dd22b4f139c87a2c57538e05bae127860405160405180910390a350565b600080fd5b6000819050919050565b61038b81610378565b811461039657600080fd5b50565b6000815190506103a881610382565b92915050565b600073ffffffffffffffffffffffffffffffffffffffff82169050919050565b60006103d9826103ae565b9050919050565b6103e9816103ce565b81146103f457600080fd5b50565b600081519050610406816103e0565b92915050565b6000819050919050565b61041f8161040c565b811461042a57600080fd5b50565b60008151905061043c81610416565b92915050565b600063ffffffff82169050919050565b61045b81610442565b811461046657600080fd5b50565b60008151905061047881610452565b92915050565b60008060008060008060c0878903121561049b5761049a610373565b5b60006104a989828a01610399565b96505060206104ba89828a01610399565b95505060406104cb89828a016103f7565b94505060606104dc89828a0161042d565b93505060806104ed89828a01610399565b92505060a06104fe89828a01610469565b9150509295509295509295565b600082825260208201905092915050565b7f43616e6e6f7420736574206f776e657220746f207a65726f0000000000000000600082015250565b600061055260188361050b565b915061055d8261051c565b602082019050919050565b6000602082019050818103600083015261058181610545565b9050919050565b7f4e487b7100000000000000000000000000000000000000000000000000000000600052602160045260246000fd5b7f43616e6e6f74207472616e7366657220746f2073656c66000000000000000000600082015250565b60006105ed60178361050b565b91506105f8826105b7565b602082019050919050565b6000602082019050818103600083015261061c816105e0565b9050919050565b60805160a05160c05160e05161010051611dba61067c60003960006106b20152600081816106810152610c910152600061065b0152600081816107e60152610c43015260008181610328015261042b0152611dba6000f3fe6080604052600436106100dd5760003560e01c80638da5cb5b1161007f5780639eccacf6116100595780639eccacf614610268578063de3d9fb714610293578063e55ae4e8146102be578063f2fde38b146102fb576100dd565b80638da5cb5b146101e95780638ea981171461021457806391ad27b41461023d576100dd565b80632cfcc539116100bb5780632cfcc539146101615780634585e33b1461016b5780636e04ff0d1461019457806379ba5097146101d2576100dd565b806309bc33a7146100e2578063115cbaf51461010d5780631fe543e314610138575b600080fd5b3480156100ee57600080fd5b506100f7610324565b604051610104919061127a565b60405180910390f35b34801561011957600080fd5b5061012261034c565b60405161012f919061130c565b60405180910390f35b34801561014457600080fd5b5061015f600480360381019061015a91906113cc565b610363565b005b610169610429565b005b34801561017757600080fd5b50610192600480360381019061018d9190611482565b610598565b005b3480156101a057600080fd5b506101bb60048036038101906101b69190611610565b6107de565b6040516101c99291906116f3565b60405180910390f35b3480156101de57600080fd5b506101e76108a0565b005b3480156101f557600080fd5b506101fe610a35565b60405161020b9190611764565b60405180910390f35b34801561022057600080fd5b5061023b600480360381019061023691906117ab565b610a5e565b005b34801561024957600080fd5b50610252610c3f565b60405161025f919061127a565b60405180910390f35b34801561027457600080fd5b5061027d610c67565b60405161028a9190611837565b60405180910390f35b34801561029f57600080fd5b506102a8610c8d565b6040516102b5919061127a565b60405180910390f35b3480156102ca57600080fd5b506102e560048036038101906102e09190611852565b610cb5565b6040516102f29190611764565b60405180910390f35b34801561030757600080fd5b50610322600480360381019061031d91906117ab565b610cfd565b005b60007f0000000000000000000000000000000000000000000000000000000000000000905090565b6000600560149054906101000a900460ff16905090565b600260009054906101000a900473ffffffffffffffffffffffffffffffffffffffff1673ffffffffffffffffffffffffffffffffffffffff163373ffffffffffffffffffffffffffffffffffffffff16146104195733600260009054906101000a900473ffffffffffffffffffffffffffffffffffffffff166040517f1cf993f400000000000000000000000000000000000000000000000000000000815260040161041092919061187f565b60405180910390fd5b610424838383610d11565b505050565b7f0000000000000000000000000000000000000000000000000000000000000000341015610483576040517f3038c00a00000000000000000000000000000000000000000000000000000000815260040160405180910390fd5b6000600181111561049757610496611295565b5b600560149054906101000a900460ff1660018111156104b9576104b8611295565b5b146104f0576040517fd24a271400000000000000000000000000000000000000000000000000000000815260040160405180910390fd5b6003339080600181540180825580915050600190039060005260206000200160009091909190916101000a81548173ffffffffffffffffffffffffffffffffffffffff021916908373ffffffffffffffffffffffffffffffffffffffff1602179055503373ffffffffffffffffffffffffffffffffffffffff167f634f3211e3a4e43fee5a21ad9f87ca153b300fc78b1c557a2057dbe9c63bcb4760405160405180910390a2565b60006105b2604051806020016040528060008152506107de565b509050806106215747600380549050600560149054906101000a900460ff1660018111156105e3576105e2611295565b5b6040517f584327aa000000000000000000000000000000000000000000000000000000008152600401610618939291906118a8565b60405180910390fd5b6001600560146101000a81548160ff0219169083600181111561064757610646611295565b5b021790555060006040518060c001604052807f000000000000000000000000000000000000000000000000000000000000000081526020017f00000000000000000000000000000000000000000000000000000000000000008152602001600361ffff1681526020017f000000000000000000000000000000000000000000000000000000000000000063ffffffff168152602001600163ffffffff168152602001610703604051806020016040528060001515815250610f66565b81525090506000600260009054906101000a900473ffffffffffffffffffffffffffffffffffffffff1673ffffffffffffffffffffffffffffffffffffffff16639b1c385e836040518263ffffffff1660e01b81526004016107659190611a16565b6020604051808303816000875af1158015610784573d6000803e3d6000fd5b505050506040513d601f19601f820116820180604052508101906107a89190611a4d565b9050807fcd6e45c8998311cab7e9d4385596cac867e20a0587194b954fa3a731c93ce78b60405160405180910390a25050505050565b6000606060007f0000000000000000000000000000000000000000000000000000000000000000600454426108139190611aa9565b10159050600080600181111561082c5761082b611295565b5b600560149054906101000a900460ff16600181111561084e5761084d611295565b5b1490506000804711905060008060038054905011905083801561086e5750825b80156108775750815b80156108805750805b955085604051806020016040528060008152509550955050505050915091565b600160009054906101000a900473ffffffffffffffffffffffffffffffffffffffff1673ffffffffffffffffffffffffffffffffffffffff163373ffffffffffffffffffffffffffffffffffffffff1614610930576040517f08c379a000000000000000000000000000000000000000000000000000000000815260040161092790611b3a565b60405180910390fd5b60008060009054906101000a900473ffffffffffffffffffffffffffffffffffffffff169050336000806101000a81548173ffffffffffffffffffffffffffffffffffffffff021916908373ffffffffffffffffffffffffffffffffffffffff1602179055506000600160006101000a81548173ffffffffffffffffffffffffffffffffffffffff021916908373ffffffffffffffffffffffffffffffffffffffff1602179055503373ffffffffffffffffffffffffffffffffffffffff168173ffffffffffffffffffffffffffffffffffffffff167f8be0079c531659141344cd1fd0a4f28419497f9722a3daafe3b4186f6b6457e060405160405180910390a350565b60008060009054906101000a900473ffffffffffffffffffffffffffffffffffffffff16905090565b610a66610a35565b73ffffffffffffffffffffffffffffffffffffffff163373ffffffffffffffffffffffffffffffffffffffff1614158015610aef5750600260009054906101000a900473ffffffffffffffffffffffffffffffffffffffff1673ffffffffffffffffffffffffffffffffffffffff163373ffffffffffffffffffffffffffffffffffffffff1614155b15610b5e5733610afd610a35565b600260009054906101000a900473ffffffffffffffffffffffffffffffffffffffff166040517f061db9c1000000000000000000000000000000000000000000000000000000008152600401610b5593929190611b5a565b60405180910390fd5b600073ffffffffffffffffffffffffffffffffffffffff168173ffffffffffffffffffffffffffffffffffffffff1603610bc4576040517fd92e233d00000000000000000000000000000000000000000000000000000000815260040160405180910390fd5b80600260006101000a81548173ffffffffffffffffffffffffffffffffffffffff021916908373ffffffffffffffffffffffffffffffffffffffff1602179055507fd1a6a14209a385a964d036e404cb5cfb71f4000cdb03c9366292430787261be681604051610c349190611764565b60405180910390a150565b60007f0000000000000000000000000000000000000000000000000000000000000000905090565b600260009054906101000a900473ffffffffffffffffffffffffffffffffffffffff1681565b60007f0000000000000000000000000000000000000000000000000000000000000000905090565b600060038281548110610ccb57610cca611b91565b5b9060005260206000200160009054906101000a900473ffffffffffffffffffffffffffffffffffffffff169050919050565b610d05610ffe565b610d0e8161108e565b50565b600060038054905083836000818110610d2d57610d2c611b91565b5b90506020020135610d3e9190611bef565b9050600060038281548110610d5657610d55611b91565b5b9060005260206000200160009054906101000a900473ffffffffffffffffffffffffffffffffffffffff16905080600560006101000a81548173ffffffffffffffffffffffffffffffffffffffff021916908373ffffffffffffffffffffffffffffffffffffffff1602179055506000600560146101000a81548160ff02191690836001811115610dea57610de9611295565b5b0217905550600067ffffffffffffffff811115610e0a57610e096114e5565b5b604051908082528060200260200182016040528015610e385781602001602082028036833780820191505090505b5060039080519060200190610e4e9291906111ba565b5042600481905550600560009054906101000a900473ffffffffffffffffffffffffffffffffffffffff1673ffffffffffffffffffffffffffffffffffffffff167f5b690ec4a06fe979403046eaeea5b3ce38524683c3001f662c8b5a829632f7df60405160405180910390a260008173ffffffffffffffffffffffffffffffffffffffff1647604051610ee190611c51565b60006040518083038185875af1925050503d8060008114610f1e576040519150601f19603f3d011682016040523d82523d6000602084013e610f23565b606091505b5050905080610f5e576040517fa1d04b3900000000000000000000000000000000000000000000000000000000815260040160405180910390fd5b505050505050565b60607f92fd13387c7fe7befbc38d303d6468778fb9731bc4583f17d92989c6fcfdeaaa82604051602401610f9a9190611c91565b604051602081830303815290604052907bffffffffffffffffffffffffffffffffffffffffffffffffffffffff19166020820180517bffffffffffffffffffffffffffffffffffffffffffffffffffffffff83818316178352505050509050919050565b60008054906101000a900473ffffffffffffffffffffffffffffffffffffffff1673ffffffffffffffffffffffffffffffffffffffff163373ffffffffffffffffffffffffffffffffffffffff161461108c576040517f08c379a000000000000000000000000000000000000000000000000000000000815260040161108390611cf8565b60405180910390fd5b565b3373ffffffffffffffffffffffffffffffffffffffff168173ffffffffffffffffffffffffffffffffffffffff16036110fc576040517f08c379a00000000000000000000000000000000000000000000000000000000081526004016110f390611d64565b60405180910390fd5b80600160006101000a81548173ffffffffffffffffffffffffffffffffffffffff021916908373ffffffffffffffffffffffffffffffffffffffff1602179055508073ffffffffffffffffffffffffffffffffffffffff1660008054906101000a900473ffffffffffffffffffffffffffffffffffffffff1673ffffffffffffffffffffffffffffffffffffffff167fed8889f560326eb138920d842192f0eb3dd22b4f139c87a2c57538e05bae127860405160405180910390a350565b828054828255906000526020600020908101928215611233579160200282015b828111156112325782518260006101000a81548173ffffffffffffffffffffffffffffffffffffffff021916908373ffffffffffffffffffffffffffffffffffffffff160217905550916020019190600101906111da565b5b5090506112409190611244565b5090565b5b8082111561125d576000816000905550600101611245565b5090565b6000819050919050565b61127481611261565b82525050565b600060208201905061128f600083018461126b565b92915050565b7f4e487b7100000000000000000000000000000000000000000000000000000000600052602160045260246000fd5b600281106112d5576112d4611295565b5b50565b60008190506112e6826112c4565b919050565b60006112f6826112d8565b9050919050565b611306816112eb565b82525050565b600060208201905061132160008301846112fd565b92915050565b6000604051905090565b600080fd5b600080fd5b61134481611261565b811461134f57600080fd5b50565b6000813590506113618161133b565b92915050565b600080fd5b600080fd5b600080fd5b60008083601f84011261138c5761138b611367565b5b8235905067ffffffffffffffff8111156113a9576113a861136c565b5b6020830191508360208202830111156113c5576113c4611371565b5b9250929050565b6000806000604084860312156113e5576113e4611331565b5b60006113f386828701611352565b935050602084013567ffffffffffffffff81111561141457611413611336565b5b61142086828701611376565b92509250509250925092565b60008083601f84011261144257611441611367565b5b8235905067ffffffffffffffff81111561145f5761145e61136c565b5b60208301915083600182028301111561147b5761147a611371565b5b9250929050565b6000806020838503121561149957611498611331565b5b600083013567ffffffffffffffff8111156114b7576114b6611336565b5b6114c38582860161142c565b92509250509250929050565b600080fd5b6000601f19601f8301169050919050565b7f4e487b7100000000000000000000000000000000000000000000000000000000600052604160045260246000fd5b61151d826114d4565b810181811067ffffffffffffffff8211171561153c5761153b6114e5565b5b80604052505050565b600061154f611327565b905061155b8282611514565b919050565b600067ffffffffffffffff82111561157b5761157a6114e5565b5b611584826114d4565b9050602081019050919050565b82818337600083830152505050565b60006115b36115ae84611560565b611545565b9050828152602081018484840111156115cf576115ce6114cf565b5b6115da848285611591565b509392505050565b600082601f8301126115f7576115f6611367565b5b81356116078482602086016115a0565b91505092915050565b60006020828403121561162657611625611331565b5b600082013567ffffffffffffffff81111561164457611643611336565b5b611650848285016115e2565b91505092915050565b60008115159050919050565b61166e81611659565b82525050565b600081519050919050565b600082825260208201905092915050565b60005b838110156116ae578082015181840152602081019050611693565b60008484015250505050565b60006116c582611674565b6116cf818561167f565b93506116df818560208601611690565b6116e8816114d4565b840191505092915050565b60006040820190506117086000830185611665565b818103602083015261171a81846116ba565b90509392505050565b600073ffffffffffffffffffffffffffffffffffffffff82169050919050565b600061174e82611723565b9050919050565b61175e81611743565b82525050565b60006020820190506117796000830184611755565b92915050565b61178881611743565b811461179357600080fd5b50565b6000813590506117a58161177f565b92915050565b6000602082840312156117c1576117c0611331565b5b60006117cf84828501611796565b91505092915050565b6000819050919050565b60006117fd6117f86117f384611723565b6117d8565b611723565b9050919050565b600061180f826117e2565b9050919050565b600061182182611804565b9050919050565b61183181611816565b82525050565b600060208201905061184c6000830184611828565b92915050565b60006020828403121561186857611867611331565b5b600061187684828501611352565b91505092915050565b60006040820190506118946000830185611755565b6118a16020830184611755565b9392505050565b60006060820190506118bd600083018661126b565b6118ca602083018561126b565b6118d7604083018461126b565b949350505050565b6000819050919050565b6118f2816118df565b82525050565b61190181611261565b82525050565b600061ffff82169050919050565b61191e81611907565b82525050565b600063ffffffff82169050919050565b61193d81611924565b82525050565b600082825260208201905092915050565b600061195f82611674565b6119698185611943565b9350611979818560208601611690565b611982816114d4565b840191505092915050565b600060c0830160008301516119a560008601826118e9565b5060208301516119b860208601826118f8565b5060408301516119cb6040860182611915565b5060608301516119de6060860182611934565b5060808301516119f16080860182611934565b5060a083015184820360a0860152611a098282611954565b9150508091505092915050565b60006020820190508181036000830152611a30818461198d565b905092915050565b600081519050611a478161133b565b92915050565b600060208284031215611a6357611a62611331565b5b6000611a7184828501611a38565b91505092915050565b7f4e487b7100000000000000000000000000000000000000000000000000000000600052601160045260246000fd5b6000611ab482611261565b9150611abf83611261565b9250828203905081811115611ad757611ad6611a7a565b5b92915050565b600082825260208201905092915050565b7f4d7573742062652070726f706f736564206f776e657200000000000000000000600082015250565b6000611b24601683611add565b9150611b2f82611aee565b602082019050919050565b60006020820190508181036000830152611b5381611b17565b9050919050565b6000606082019050611b6f6000830186611755565b611b7c6020830185611755565b611b896040830184611755565b949350505050565b7f4e487b7100000000000000000000000000000000000000000000000000000000600052603260045260246000fd5b7f4e487b7100000000000000000000000000000000000000000000000000000000600052601260045260246000fd5b6000611bfa82611261565b9150611c0583611261565b925082611c1557611c14611bc0565b5b828206905092915050565b600081905092915050565b50565b6000611c3b600083611c20565b9150611c4682611c2b565b600082019050919050565b6000611c5c82611c2e565b9150819050919050565b611c6f81611659565b82525050565b602082016000820151611c8b6000850182611c66565b50505050565b6000602082019050611ca66000830184611c75565b92915050565b7f4f6e6c792063616c6c61626c65206279206f776e657200000000000000000000600082015250565b6000611ce2601683611add565b9150611ced82611cac565b602082019050919050565b60006020820190508181036000830152611d1181611cd5565b9050919050565b7f43616e6e6f74207472616e7366657220746f2073656c66000000000000000000600082015250565b6000611d4e601783611add565b9150611d5982611d18565b602082019050919050565b60006020820190508181036000830152611d7d81611d41565b905091905056fea26469706673582212202994af3ada41bee29b6b842af9685f7fde82e8ee68ac812f4c5abeac054fb41a64736f6c634300081c0033",
  "devdoc": {
    "author": "Nuwan Fernando",
    "details": "Implements Chainlink VRFv2.5",
    "kind": "dev",
    "methods": {
      "checkUpkeep(bytes)": {
        "details": "This is the function that the Chainlink nodes will call to see if the lottery is ready to have a winner picked. The following shoulod be true in order for upkeepNeeded to be true: 1. The time interval has passed between raffle runs 2. The lottery is open 3. The contract has ETH (has players) 4. Implicitly, your subscription has LINK",
        "params": {
          "": "- ignored"
        },
        "returns": {
          "_1": "- ignored",
          "upkeepNeeded": "- true if it's time to restart the lottery"
        }
      }
    },
    "title": "A sample Raffle contract",
    "version": 1
  },
  "userdoc": {
    "kind": "user",
    "methods": {
      "acceptOwnership()": {
        "notice": "Allows an ownership transfer to be completed by the recipient."
      },
      "owner()": {
        "notice": "Get the current owner"
      },
      "setCoordinator(address)": {
        "notice": "Sets the VRF Coordinator addressThis method should only be callable by the coordinator or contract owner"
      },
      "transferOwnership(address)": {
        "notice": "Allows an owner to begin transferring ownership to a new address."
      }
    },
    "notice": "This contract is for creating a sample Raffle",
    "version": 1
  },
  "storageLayout": {
    "storage": [
      {
        "astId": 29,
        "contract": "contracts/Raffle.sol:Raffle",
        "label": "s_owner",
        "offset": 0,
        "slot": "0",
        "type": "t_address"
      },
      {
        "astId": 31,
        "contract": "contracts/Raffle.sol:Raffle",
        "label": "s_pendingOwner",
        "offset": 0,
        "slot": "1",
        "type": "t_address"
      },
      {
        "astId": 2312,
        "contract": "contracts/Raffle.sol:Raffle",
        "label": "s_vrfCoordinator",
        "offset": 0,
        "slot": "2",
        "type": "t_contract(IVRFCoordinatorV2Plus)2461"
      },
      {
        "astId": 3479,
        "contract": "contracts/Raffle.sol:Raffle",
        "label": "s_players",
        "offset": 0,
        "slot": "3",
        "type": "t_array(t_address_payable)dyn_storage"
      },
      {
        "astId": 3481,
        "contract": "contracts/Raffle.sol:Raffle",
        "label": "s_lastTimeStamp",
        "offset": 0,
        "slot": "4",
        "type": "t_uint256"
      },
      {
        "astId": 3483,
        "contract": "contracts/Raffle.sol:Raffle",
        "label": "s_recentWinner",
        "offset": 0,
        "slot": "5",
        "type": "t_address"
      },
      {
        "astId": 3486,
        "contract": "contracts/Raffle.sol:Raffle",
        "label": "s_raffleState",
        "offset": 20,
        "slot": "5",
        "type": "t_enum(RaffleState)3460"
      }
    ],
    "types": {
      "t_address": {
        "encoding": "inplace",
        "label": "address",
        "numberOfBytes": "20"
      },
      "t_address_payable": {
        "encoding": "inplace",
        "label": "address payable",
        "numberOfBytes": "20"
      },
      "t_array(t_address_payable)dyn_storage": {
        "base": "t_address_payable",
        "encoding": "dynamic_array",
        "label": "address payable[]",
        "numberOfBytes": "32"
      },
      "t_contract(IVRFCoordinatorV2Plus)2461": {
        "encoding": "inplace",
        "label": "contract IVRFCoordinatorV2Plus",
        "numberOfBytes": "20"
      },
      "t_enum(RaffleState)3460": {
        "encoding": "inplace",
        "label": "enum Raffle.RaffleState",
        "numberOfBytes": "1"
      },
      "t_uint256": {
        "encoding": "inplace",
        "label": "uint256",
        "numberOfBytes": "32"
      }
    }
  }
}